:020000040000FA
:100000000030A3000030A50024102610271083160E
:1000100000308600831283168510051183120612A4
:1000200086120613861385100511A30A05182618D3
:100030001C28872026141528051C1F281528261083
:1000400027105E203820061E3028861E3028061F06
:100050003028861F3028851C3028051D302831287F
:100060001528061286120613861385100511152809
:100070002308063C031D08003E2008000030A300B2
:1000800008000030250603195E20013025060319FB
:100090006320023025060319692003302506031961
:1000A0006F20043025060319752005302506031935
:1000B0007B200630250603198120080006108610D3
:1000C000061186110800061486100611861186177F
:1000D000080086140611061086110617080006147B
:1000E000861406118611861608000615861006105D
:1000F000861106160800061406158610861185144A
:100100000800861406150610861105150800271824
:1001100008000130A7002308A50041200800643032
:08012000A000A00B91280800CB
:02400E00F33F7E
:00000001FF
